:020000040800F2
:1000000000C00020210F0008290E0008310E000852
:10001000390E0008410E0008490E000800000000DB
:10002000000000000000000000000000510E000869
:100030005D0E000800000000690E0008750E000843
:10004000690F0008690F0008690F0008690F0008B0
:10005000690F0008690F0008690F0008690F0008A0
:10006000690F0008690F0008690F0008690F000890
:10007000690F0008690F0008690F0008690F000880
:10008000690F0008690F0008690F0008690F000870
:10009000690F0008690F0008690F0008690F000860
:1000A000690F0008690F0008690F0008690F000850
:1000B000690F0008690F0008690F0008690F000840
:1000C000690F0008690F0008690F0008690F000830
:1000D000690F0008810E0008950E0008690F0008DE
:1000E000690F0008690F0008690F0008690F000810
:1000F000690F0008690F0008690F0008690F000800
:10010000690F0008690F0008690F0008690F0008EF
:10011000690F0008690F0008690F0008690F0008DF
:10012000690F0008690F0008690F0008690F0008CF
:1001300000000000000000000000000000000000BF
:1001400000000000000000000000000000000000AF
:10015000000000000000000000000000000000009F
:10016000000000000000000000000000000000008F
:10017000000000000000000000000000000000007F
:10018000000000000000000000000000000000006F
:10019000000000000000000000000000000000005F
:1001A000000000000000000000000000000000004F
:1001B000000000000000000000000000000000003F
:1001C000000000000000000000000000000000002F
:1001D000000000000000000000000000000000001F
:0401E0005FF8E0F1F3
:1001E40010B5054C237833B9044B13B10448AFF36D
:1001F40000800123237010BD600000200000000077
:100204000048000808B5034B1BB103490348AFF38A
:10021400008008BD000000006400002000480008C1
:10022400034613F8012B002AFBD1181A0138704732
:1002340080B485B000AF78600023FB6015E0FB68F4
:1002440003F10113DB027A689A420BD2FB6803F5CF
:100254008033DB027A689A4204D3FB6803F5803367
:10026400DB0206E0FB680133FB60FB687F2BE6DD05
:10027400002318461437BD4680BC7047B0B58AB019
:1002840000AFF860B9601346FB8000237B6201F085
:1002940019FAF868FFF7CCFF3862FB889B001A460E
:1002A400FB681344FB61F869FFF7C2FFB861204B98
:1002B40000221A601E4A3B6A9360BA693B6AD31AE9
:1002C400DB0A01331A4AD36007F1140319461848AC
:1002D40001F0EAFA0346002B1FD001F029FA034685
:1002E40022E07B6A9B00BA6813441B6800221C4608
:1002F400154622462B46F968022001F073F903469D
:10030400002B06D1FB680433FB607B6A01337B62FC
:1003140003E001F00DFA034606E0FB887A6A9A428C
:10032400DFDB01F0F5F9002318462837BD46B0BDE0
:100334007C000020B0B58EB000AFF860B960134601
:10034400FB80FB687B6300233B630023FB8501F098
:10035400B9F9FB6823F4FF6323F00703BB620023AE
:10036400BB61BB6A3B62FB8803F2FF73DB0A7B62FF
:1003740007F1140207F118031146184601F094FA24
:100384000346002B3FD001F0C3F901F0D1F9034635
:1003940040E000233B63002387F82D3019E0FA8DF9
:1003A400FB889A4210D2FB8DBA6813441B781A4614
:1003B40097F82D30DB0002FA03F31A463B6B134324
:1003C4003B63FB8D0133FB8597F82D30013387F8B0
:1003D4002D3097F82D30032BE1D93B6B00221C46BE
:1003E400154622462B46796B022001F0FBF80346A2
:1003F400002B05D001F08CF901F09AF9034609E0CD
:100404007B6B04337B63FA8DFB889A42C1D301F082
:100414007FF9002318463837BD46B0BD0FB480B508
:10042400ADF51C7D00AF07F51C73A3F59673002290
:100434001A6004334FF494720021184603F04EFD01
:1004440007F51C73A3F51B7300221A6004334FF4E1
:100454009E720021184603F041FD07F51F7207F54F
:100464001C73A3F51C731A6007F51C73A3F51C73A6
:1004740007F5A2701A68D7F8781203F025FD07F57E
:10048400A2731846FFF7CCFE024607F5A273381D87
:100494000A4903F0E3FC3B1D1846FFF7C1FE03467F
:1004A4009AB2391D6423064802F012FF00BF07F513
:1004B4001C77BD46BDE8804004B07047184800086A
:1004C400E808002080B483B000AF78607B6803F054
:1004D4000303002B04D07B6823F00303043300E000
:1004E4007B6818460C37BD4680BC704780B584B025
:1004F40000AF0346FB71114B00225A6002220F49E0
:100504000F4800F0FAFEF8600C4AFB6893604FF461
:10051400006200210B4803F0E1FC0A4B074A07CABA
:1005240083E80700084801F047FA03220549064812
:10053400FFF7A4FE00BF1037BD4680BD8C0000202D
:10054400980800209800002000F0030880B582B0CD
:1005540000AF1F4B1F4A07CA83E807001C4B9B6868
:100564001A460C211C48FFF759FF022218491B4860
:1005740000F0C3FE786079681948FFF74FFF144B09
:100584009B68B3F1FF3F04D0114B9B687A689A4291
:1005940003D01448FFF742FF0BE00D4B5B68002BC0
:1005A40007D00B4B1B6819460F48FFF737FF012391
:1005B40009E00E48FFF732FF054B1B6819460C484B
:1005C400FFF72CFF002318460837BD4680BD00BF47
:1005D4008C00002000F0030834480008980800202C
:1005E4005C4800087048000880480008A8480008D3
:1005F400C448000880B588B000AF304B1B68BB60AE
:10060400BB68C3F30A037B607B68002B03D1BB6820
:10061400DB0AFB6103E0BB68DB0A0133FB61284BA7
:10062400BB61284B7B61FA69B9682748FFF7F6FE7E
:10063400BA6979692548FFF7F1FE00233B612FE091
:100644004FF40063FB60B86901F0B6F9FB69013B44
:100654003A699A4206D17B68002B03D07868FFF789
:1006640031FFF860FB68BA6979691948FFF7D6FE6B
:100674007B69FA681946174803F064FCFB689BB26F
:100684001A461449B869FFF755FEBB6903F50063C0
:10069400BB617B6903F500637B613B6901333B61AB
:1006A4003A69FB699A42CBD3054BBB610120FFF742
:1006B4001DFF012318462037BD4680BD8C00002055
:1006C4000080000800300208E448000814490008CB
:1006D400444900089800002080B586B000AF7860D7
:1006E40072B600BF00237B6110E01C4A7B69203393
:1006F4004FF0FF3142F82310184A7B6960334FF002
:10070400FF3142F823107B6901337B617B69072B3E
:10071400EBD9134B00221A60124B5B68114A43F069
:10072400007353600F4B5B6A0E4A23F4E023536259
:100734000C4A7B6893607B681B68BB60BB6883F36F
:10074400088800BF7B6804331B683B613B69FB601E
:10075400FB68984700BF1837BD4680BD00E100E044
:1007640010E000E000ED00E080B500AF72B600BF1D
:1007740000F097FD00BF80BD80B582B000AF62B6C7
:1007840000BF00F0F1FB00F08FF800F0B3F900F0C7
:100794005DF900F085F900F0CDF800F0DFF80C21E8
:1007A400364801F0A9FF354B1B68C8221A64344847
:1007B400FFF734FE012201213248FFF72FFE002308
:1007C4007B803148FFF72AFE642000F02FFC0423CD
:1007D4007B70FFF7BBFE0346002B2AD012E0FFF725
:1007E40009FF0346002B03D02848FFF717FE11E04A
:1007F4007B78DBB219462648FFF710FE41F28830B9
:1008040000F014FC7B78DBB2013BDBB21A467A7051
:10081400002BE4D17B78DBB2002B0AD11D48FFF713
:10082400FDFD42F2107000F001FCFFF79DFF00BFD8
:10083400FDE700237B600EE079681748FFF7EEFDC3
:100844000121164801F084FA4FF47A7000F0EEFBAF
:100854007B6801337B607B68052BEDDD7B8801338E
:100864007B8000BF0E48FFF737FF0E48FFF7D6FD29
:10087400002318460837BD4680BD00BFA0080020ED
:100884007049000888490008AC490008C8490008B4
:10089400E4490008084A0008184A0008000C01400E
:1008A400008000082C4A000880B590B000AF07F122
:1008B400180328220021184603F010FB3B1D0022D8
:1008C4001A605A609A60DA601A610123BB614FF4BE
:1008D4008033FB614FF400333B620123BB6202238C
:1008E4007B634FF48033BB634FF4E013FB6307F186
:1008F4001803184601F046FA0346002B01D000F015
:1009040057F90F237B600223BB600023FB604FF485
:1009140080633B6100237B613B1D0221184601F08B
:10092400B3FC0346002B01D000F042F900BF40376E
:10093400BD4680BD80B500AF064B074A1A60054826
:1009440000F0BFFC0346002B01D000F031F900BFDA
:1009540080BD00BF980800200030024080B58EB0F2
:1009640000AF07F1280300221A605A609A60DA6027
:1009740007F1200300221A605A603B1D00221A600E
:100984005A609A60DA601A615A619A612D4B2E4A54
:100994001A602C4B44F24F625A602A4B00229A6030
:1009A400284B40F2CF72DA60264B00221A61254BA5
:1009B40000229A61234801F0F7FD0346002B01D081
:1009C40000F0F6F84FF48053BB6207F12803194690
:1009D4001C4802F00DF80346002B01D000F0E8F8A3
:1009E400184801F030FE0346002B01D000F0E0F877
:1009F40000233B6200237B6207F120031946114860
:100A040002F0AAFB0346002B01D000F0D1F86023CA
:100A14007B600023BB600023FB6000237B613B1DE4
:100A24000C221946074801F021FF0346002B01D090
:100A340000F0BEF8034800F02FF900BF3837BD4678
:100A440080BD00BFA00800200004004080B500AFB6
:100A5400114B124A1A60104B4FF416425A600E4B57
:100A640000229A600C4B0022DA600B4B00221A61C0
:100A7400094B0C225A61084B00229A61064B002252
:100A8400DA61054802F0D4FB0346002B01D000F0E4
:100A94008FF800BF80BD00BFE80800200038014087
:100AA40080B500AF114B124A1A60104B4FF4E1327B
:100AB4005A600E4B00229A600C4B0022DA600B4BFA
:100AC40000221A61094B0C225A61084B00229A61D8
:100AD400064B0022DA61054802F0AAFB0346002B0C
:100AE40001D000F065F800BF80BD00BF30090020D0
:100AF4000044004080B588B000AF07F11003002225
:100B04001A605A609A60DA60264B9B69254A43F062
:100B140020039361234B9B6903F02003FB60FB6874
:100B2400204B9B691F4A43F0040393611D4B9B694F
:100B340003F00403BB60BB681A4B9B69194A43F07A
:100B440008039361174B9B6903F008037B607B6880
:100B540000220221144801F0E3F800220121134885
:100B640001F0DEF802233B6101237B610023BB61BA
:100B74000223FB6107F1100319460B4800F03CFF08
:100B840001233B6101237B610023BB610223FB61E1
:100B940007F110031946054800F02EFF00BF203767
:100BA400BD4680BD0010024000080140000C014019
:100BB40080B400AF72B600BF00BFFDE780B485B05B
:100BC40000AF154B9B69144A43F001039361124B28
:100BD4009B6903F00103BB60BB680F4BDB690E4AE2
:100BE40043F08053D3610C4BDB6903F080537B608B
:100BF4007B680A4B5B68FB60FB6823F0E063FB6087
:100C0400FB6843F00073FB60044AFB68536000BF59
:100C14001437BD4680BC70470010024000000140FC
:100C240080B485B000AF78607B681B68094A934242
:100C34000BD1094B5B69084A43F040035361064BEF
:100C44005B6903F04003FB60FB6800BF1437BD46DB
:100C540080BC7047003002400010024080B485B070
:100C640000AF78607B681B68094A93420BD1094B3B
:100C7400DB69084A43F00203D361064BDB6903F0E6
:100C84000203FB60FB6800BF1437BD4680BC70479D
:100C9400000400400010024080B588B000AF7860C6
:100CA40007F1100300221A605A609A60DA607B68C8
:100CB4001B680F4A934217D10E4B9B690D4A43F0B0
:100CC400080393610B4B9B6903F00803FB60FB680B
:100CD40002233B6102237B610223FB6107F11003C2
:100CE4001946054800F088FE00BF2037BD4680BD88
:100CF4000004004000100240000C014080B58AB09E
:100D040000AF786007F1180300221A605A609A60F5
:100D1400DA607B681B683F4A93423AD13E4B9B6939
:100D24003D4A43F4804393613B4B9B6903F4804306
:100D34007B617B69384B9B69374A43F004039361B9
:100D4400354B9B6903F004033B613B694FF400732B
:100D5400BB610223FB6103237B6207F1180319467D
:100D64002E4800F049FE4FF48063BB610023FB6111
:100D740000233B6207F118031946284800F03CFEA3
:100D840000220021252000F062FA252000F07BFAE1
:100D94003CE07B681B68224A934237D11E4BDB69D7
:100DA4001D4A43F40033D3611B4BDB6903F4003366
:100DB400FB60FB68184B9B69174A43F0040393617B
:100DC400154B9B6903F00403BB60BB680423BB6140
:100DD4000223FB6103237B6207F1180319460F48C2
:100DE40000F00AFE0823BB610023FB6100233B6281
:100DF40007F118031946094800F0FEFD00220021FE
:100E0400262000F024FA262000F03DFA00BF2837FF
:100E1400BD4680BD0038014000100240000801407A
:100E24000044004080B400AF00BFFDE780B400AFD1
:100E340000BFFDE780B400AF00BFFDE780B400AFA2
:100E440000BFFDE780B400AF00BFFDE780B400AF92
:100E540000BFBD4680BC704780B400AF00BFBD4634
:100E640080BC704780B400AF00BFBD4680BC7047F3
:100E740080B500AF00F0BEF800BF80BD80B500AF04
:100E8400024802F0B1FA00BF80BD00BFE8080020AC
:100E940080B500AF024802F0A7FA00BF80BD00BFD2
:100EA4003009002080B586B000AF7860144A154B35
:100EB400D31A7B617B693B61134B1B68002B02D106
:100EC400114B124A1A60104B1A687B6813443A6932
:100ED4009A4207D203F00AF803460C221A604FF034
:100EE400FF3309E0084B1B68FB60074B1A687B68FB
:100EF4001344054A1360FB6818461837BD4680BD85
:100F040000C000200004000078090020E80A002046
:100F140080B400AF00BFBD4680BC7047FFF7F8FF48
:100F24000B480C490C4A002302E0D458C450043343
:100F3400C4188C42F9D3094A094C002301E0136018
:100F44000432A242FBD302F0D7FFFFF715FC70472F
:100F5400000000205C000020C44A0008600000205B
:100F6400E80A0020FEE7000080B500AF084B1B68CC
:100F7400074A43F010031360032000F05DF90F20CB
:100F840000F008F8FFF71AFE0023184680BD00BFE2
:100F94000020024080B582B000AF7860124B1A681E
:100FA400124B1B7819464FF47A73B3FBF1F3B2FB7F
:100FB400F3F3184600F079F90346002B01D001231E
:100FC4000EE07B680F2B0AD8002279684FF0FF30BF
:100FD40000F03DF9064A7B681360002300E001231A
:100FE40018460837BD4680BD0000002008000020D8
:100FF4000400002080B400AF054B1B781A46054B53
:101004001B681344034A136000BFBD4680BC70478D
:10101400080000207C09002080B400AF024B1B684C
:101024001846BD4680BC70477C09002080B584B05A
:1010340000AF7860FFF7F0FFB8607B68FB60FB6887
:10104400B3F1FF3F05D00A4B1B781A46FB681344E3
:10105400FB6000BFFFF7E0FF0246BB68D31AFA68E3
:101064009A42F7D800BF00BF1037BD4680BD00BF0D
:101074000800002080B485B000AF78607B6803F07E
:101084000703FB600C4BDB68BB60BA684FF6FF03D9
:101094001340BB60FB681A02BB68134343F0BF6391
:1010A40043F40033BB60044ABB68D36000BF143709
:1010B400BD4680BC704700BF00ED00E080B400AFC7
:1010C400044BDB681B0A03F007031846BD4680BCCB
:1010D400704700BF00ED00E080B483B000AF03466A
:1010E400FB7197F90730002B0BDBFB7903F01F0230
:1010F400064997F907305B09012000FA02F241F82A
:10110400232000BF0C37BD4680BC704700E100E0DF
:1011140080B483B000AF03463960FB7197F90730A0
:10112400002B0ADB3B68DAB20C4997F9073012014D
:10113400D2B20B4483F800230AE03B68DAB20849D0
:10114400FB7903F00F03043B1201D2B20B441A766D
:1011540000BF0C37BD4680BC704700BF00E100E013
:1011640000ED00E080B489B000AFF860B9607A6047
:10117400FB6803F00703FB61FB69C3F10703042B5E
:1011840028BF0423BB61FB690433062B02D9FB6926
:10119400033B00E000237B614FF0FF32BB6902FA9E
:1011A40003F3DA43BB681A407B699A404FF0FF317E
:1011B4007B6901FA03F3D9437B680B401343184658
:1011C4002437BD4680BC704780B400AFBFF34F8F57
:1011D40000BF064BDB6803F4E0620449044B13438D
:1011E400CB60BFF34F8F00BF00BFFDE700ED00E011
:1011F4000400FA0580B582B000AF78607B68013BDB
:10120400B3F1807F01D301230FE00A4A7B68013BDD
:1012140053600F214FF0FF30FFF77AFF054B002298
:101224009A60044B07221A60002318460837BD460B
:1012340080BD00BF10E000E080B582B000AF7860F0
:101244007868FFF717FF00BF0837BD4680BD80B53B
:1012540086B000AF0346B9607A60FB7300237B61FC
:10126400FFF72CFF78617A68B9687869FFF77AFF2D
:10127400024697F90F3011461846FFF749FF00BFA1
:101284001837BD4680BD80B582B000AF0346FB7100
:1012940097F907301846FFF71FFF00BF0837BD4610
:1012A40080BD80B500AFFFF78FFF80B582B000AF7F
:1012B40078607868FFF79EFF034618460837BD46F6
:1012C40080BD80B582B000AF78607B68002B01D10F
:1012D40001230EE07B685B79DBB2002B05D17B68D0
:1012E40000221A717868FFF79BFC7B6801225A710F
:1012F400002318460837BD4680BD80B487B000AFD0
:10130400F860B9607A6000233B61FB6802225A717D
:10131400FB681B689A68FB681B6842F001029A60CC
:1013240000237B610AE07B699B00BA681A44FB686E
:101334001B6812681A607B6901337B617A697B6878
:101344009A42F0D3FB681B681B683B61FB6801226F
:101354005A713B6918461C37BD4680BC704780B43F
:1013640085B000AF78600023FB737B6893F821306D
:10137400DBB2022B08D07B6804229A637B680022CC
:1013840083F82020012320E07B681B681A687B68AF
:101394001B6822F00E021A607B681B681A687B685F
:1013A4001B6822F001021A607B681A6C7B68DB6B95
:1013B400012101FA02F25A607B68012283F821209C
:1013C4007B68002283F82020FB7B18461437BD4637
:1013D40080BC704780B584B000AF78600023FB7395
:1013E4007B6893F82130DBB2022B05D07B680422A2
:1013F4009A630123FB73D6E07B681B681A687B68D9
:101404001B6822F00E021A607B681B681A687B68EE
:101414001B6822F001021A607B681B681A46644B41
:101424009A4258D97B681B68624A93424FD07B68C2
:101434001B68614A934248D07B681B685F4A9342A9
:1014440040D07B681B685E4A934238D07B681B6837
:101454005C4A934230D07B681B685B4A934228D035
:101464007B681B68524A934220D07B681B68574AAA
:10147400934219D07B681B68554A934212D07B680B
:101484001B68544A93420AD07B681B68524A9342B1
:1014940002D14FF480531BE04FF4803318E04FF433
:1014A400807315E0102313E0012311E04FF08073E3
:1014B4000EE04FF480130BE04FF4803308E04FF458
:1014C400805305E04FF4807302E0102300E0012311
:1014D400424A536057E07B681B68364A93424FD0B8
:1014E4007B681B68344A934248D07B681B68334A44
:1014F400934240D07B681B68314A934238D07B6862
:101504001B68304A934230D07B681B682E4A934252
:1015140028D07B681B68264A934220D07B681B68CE
:101524002A4A934219D07B681B68294A934212D0F5
:101534007B681B68274A93420AD07B681B68264A4B
:10154400934202D14FF480531BE04FF4803318E0F0
:101554004FF4807315E0102313E0012311E04FF0E2
:1015640080730EE04FF480130BE04FF4803308E0F7
:101574004FF4805305E04FF4807302E0102300E041
:101584000123174A53607B68012283F821207B687A
:10159400002283F820207B685B6B002B03D07B68E0
:1015A4005B6B78689847FB7B18461037BD4680BD57
:1015B40080000240080002401C000240300002404B
:1015C40044000240580002406C00024008040240FB
:1015D4001C0402403004024044040240000402405F
:1015E40000000240F0B587B000AFF860B960C7E909
:1015F40000230123FB750023BB7500237B752F4B50
:101604001B7E012B01D1022354E02C4B01221A76BC
:101614004CF2503000F0B2F80346FB75FB7D002B12
:1016240044D1FB68012B02D101237B7507E0FB68E1
:10163400022B02D102237B7501E004237B75002376
:10164400BB752DE0BB7D5A00BB6802EB030CBB7D70
:101654001901D7E90023C1F12006A1F1200022FAE3
:1016640001F403FA06F6344323FA00F0044323FAA0
:1016740001F5A3B21946604600F064F84CF250300C
:1016840000F07CF80346FB750D4B1B690C4A23F0F4
:1016940001031361FB7D002B07D1BB7D0133BB75B7
:1016A400BA7D7B7D9A42CDD300E000BF034B00227C
:1016B4001A76FB7D18461C37BD46F0BD8009002014
:1016C4000020024080B483B000AF0023FB710D4BB7
:1016D4001B6903F08003002B0DD00A4B0A4A5A60A1
:1016E400084B0A4A5A60074B1B6903F08003002B1E
:1016F40001D00123FB71FB7918460C37BD4680BC31
:10170400704700BF0020024023016745AB89EFCD3D
:1017140080B400AF054B1B69044A43F08003136196
:1017240000231846BD4680BC704700BF002002401D
:1017340080B400AF024BDB691846BD4680BC7047DD
:101744008009002080B483B000AF78600B467B80B2
:10175400084B0022DA61084B1B69074A43F0010376
:1017640013617B687A881A8000BF0C37BD4680BC41
:10177400704700BF800900200020024080B584B07B
:1017840000AF7860FFF748FCF86010E07B68B3F1C5
:10179400FF3F0CD07B68002B07D0FFF73DFC0246CF
:1017A400FB68D31A7A689A4201D2032325E0154BC9
:1017B400DB6803F00103002BE8D1124BDB6803F074
:1017C4002003002B02D00F4B2022DA600D4BDB6884
:1017D40003F01003002B0BD10A4BDB6903F0010368
:1017E400002B05D1074BDB6803F00403002B03D067
:1017F40000F00AF8012300E0002318461037BD4624
:1018040080BD00BF0020024080B483B000AF00233D
:101814007B60234BDB6803F01003002B09D0214BC2
:10182400DB6943F002031F4AD3617B6843F0100372
:101834007B601B4BDB6803F00403002B09D0194BBE
:10184400DB6943F00103174AD3617B6843F0040367
:101854007B60134BDB6903F00103002B0BD0114BAE
:10186400DB6943F004030F4AD3610D4BDB690C4A77
:1018740023F00103D3617B6840F20112934206D145
:10188400074BDB69064A23F00103D36102E0044AF3
:101894007B68D36000BF0C37BD4680BC704700BF77
:1018A400002002408009002080B584B000AF786039
:1018B40039600123FB730023BB602F4B1B7E012B7C
:1018C40001D1022353E02C4B01221A767B681B685A
:1018D400022B16D14CF25030FFF750FF0346002B79
:1018E40041D1012000F04CF84CF25030FFF746FF94
:1018F4000346FB73214B1B69204A23F00403136145
:1019040031E04CF25030FFF739FF0346002B2AD167
:101914003B684FF0FF321A607B689B68BB6019E03C
:10192400B86800F049F84CF25030FFF727FF03463F
:10193400FB73124B1B69114A23F002031361FB7BF7
:10194400002B03D03B68BA681A600CE0BB6803F54F
:101954000063BB607B68DB68DA027B689B681344C6
:10196400BA689A42DCD3044B00221A76FB7B1846F1
:101974001037BD4680BD00BF800900200020024012
:1019840080B483B000AF7860094B0022DA61094B60
:101994001B69084A43F004031361064B1B69054A9B
:1019A40043F04003136100BF0C37BD4680BC704751
:1019B400800900200020024080B483B000AF78602A
:1019C4000B4B0022DA610B4B1B690A4A43F00203FA
:1019D4001361084A7B685361064B1B69054A43F04F
:1019E4004003136100BF0C37BD4680BC704700BF85
:1019F400800900200020024080B48BB000AF7860E2
:101A0400396000237B6200233B6279E101227B6A17
:101A140002FA03F3FB613B681B68FA691340BB617C
:101A2400BA69FB699A4240F068813B685B68964AF0
:101A340093425ED0944A934275D8944A934258D0C4
:101A4400924A93426FD8924A934252D0904A934218
:101A540069D8904A93424CD08E4A934263D88E4AB6
:101A6400934246D08C4A93425DD8122B2AD8122B2B
:101A740059D801A252F823F0F71A0008D11A000825
:101A8400E31A0008251B00082B1B00082B1B000869
:101A94002B1B00082B1B00082B1B00082B1B00080A
:101AA4002B1B00082B1B00082B1B00082B1B0008FA
:101AB4002B1B00082B1B00082B1B0008D91A00083D
:101AC400ED1A0008754A934213D02CE03B68DB689A
:101AD4003B6229E03B68DB6804333B6224E03B68FB
:101AE400DB6808333B621FE03B68DB680C333B6216
:101AF4001AE03B689B68002B02D104233B6213E08D
:101B04003B689B68012B05D108233B627B68FA691B
:101B14001A6109E008233B627B68FA695A6103E0B1
:101B240000233B6200E000BFBB69FF2B01D87B6848
:101B340001E07B6804337B61BB69FF2B02D87B6ABD
:101B44009B0002E07B6A083B9B003B617B691A684F
:101B54000F213B6901FA03F3DB431A40396A3B69FD
:101B640001FA03F31A437B691A603B685B6803F06C
:101B74008053002B00F0C180494B9B69484A43F0D5
:101B840001039361464B9B6903F00103BB60BB688F
:101B9400444A7B6A9B08023352F82330FB607B6A19
:101BA40003F003039B000F2202FA03F3DB43FA68FA
:101BB4001340FB607B683C4A93421FD07B683B4ADE
:101BC400934219D07B683A4A934213D07B68394ACE
:101BD40093420DD07B68384A934207D07B68374ADA
:101BE400934201D105230AE0062308E0042306E01A
:101BF400032304E0022302E0012300E000237A6AC5
:101C040002F0030292009340FA681343FB602549F3
:101C14007B6A9B080233FA6841F823203B685B68BF
:101C240003F48013002B06D0254B9A682449BB6922
:101C340013438B6006E0224B9A68BB69DB4320495F
:101C440013408B603B685B6803F40013002B06D0E1
:101C54001B4BDA681A49BB691343CB6006E0184B87
:101C6400DA68BB69DB4316491340CB603B685B68A9
:101C740003F40033002B25D0114B5A681049BB697B
:101C840013434B6025E000BF000032100000311008
:101C9400000022100000211000001210000011109A
:101CA400001002400000014000080140000C014007
:101CB400001001400014014000180140001C0140C4
:101CC40000040140154B5A68BB69DB4313491340B8
:101CD4004B603B685B6803F48033002B06D00F4BEA
:101CE4001A680E49BB6913430B6006E00B4B1A6874
:101CF400BB69DB43094913400B607B6A01337B6298
:101D04003B681A687B6A22FA03F3002B7FF47EAEE9
:101D140000BF00BF2C37BD4680BC704700040140A3
:101D240080B483B000AF78600B467B8013467B7031
:101D34007B78002B03D07A887B681A6103E07B8868
:101D44001A047B681A6100BF0C37BD4680BC70471B
:101D540080B485B000AF78600B467B807B68DB681D
:101D6400FB607A88FB6813401A04FB68D9437B88BC
:101D74000B401A437B681A6100BF1437BD4680BC10
:101D84007047000080B586B000AF78607B68002B98
:101D940001D1012372E27B681B6803F00103002B6D
:101DA40000F08780924B5B6803F00C03042B0CD08B
:101DB4008F4B5B6803F00C03082B12D18C4B5B68D0
:101DC40003F48033B3F5803F0BD1894B1B6803F4D4
:101DD4000033002B6CD07B685B68002B68D1012337
:101DE4004CE27B685B68B3F5803F06D1804B1B688F
:101DF4007F4A43F4803313602EE07B685B68002BDA
:101E04000CD17B4B1B687A4A23F480331360784BE4
:101E14001B68774A23F4802313601DE07B685B68AA
:101E2400B3F5A02F0CD1724B1B68714A43F4802385
:101E340013606F4B1B686E4A43F4803313600BE0EE
:101E44006B4B1B686A4A23F480331360684B1B682E
:101E5400674A23F4802313607B685B68002B13D0EC
:101E6400FFF7DAF8386108E0FFF7D6F802463B6975
:101E7400D31A642B01D9032300E25D4B1B6803F4DE
:101E84000033002BF0D014E0FFF7C6F8386108E007
:101E9400FFF7C2F802463B69D31A642B01D9032326
:101EA400ECE1534B1B6803F40033002BF0D100E04A
:101EB40000BF7B681B6803F00203002B63D04C4B0C
:101EC4005B6803F00C03002B0BD0494B5B6803F0F9
:101ED4000C03082B1CD1464B5B6803F48033002BA6
:101EE40016D1434B1B6803F00203002B05D07B681B
:101EF4001B69012B01D00123C0E13D4B1B6823F07A
:101F0400F8027B685B69DB00394913430B603AE0F4
:101F14007B681B69002B20D0364B01221A60FFF727
:101F24007BF8386108E0FFF777F802463B69D31A7B
:101F3400022B01D90323A1E12D4B1B6803F00203FB
:101F4400002BF0D02A4B1B6823F0F8027B685B69F6
:101F5400DB00274913430B6015E0264B00221A606F
:101F6400FFF75AF8386108E0FFF756F802463B6974
:101F7400D31A022B01D9032380E11D4B1B6803F004
:101F84000203002BF0D17B681B6803F00803002BCD
:101F94003AD07B689B69002B19D0174B01221A6039
:101FA400FFF73AF8386108E0FFF736F802463B6974
:101FB400D31A022B01D9032360E10D4B5B6A03F0B2
:101FC4000203002BF0D0012000F0D0FA1CE00A4BF1
:101FD40000221A60FFF720F838610FE0FFF71CF8C1
:101FE40002463B69D31A022B08D9032346E100BFFA
:101FF400001002400000424280044242924B5B6A5D
:1020040003F00203002BE9D17B681B6803F004038F
:10201400002B00F0A6800023FB758B4BDB6903F0DB
:102024008053002B0DD1884BDB69874A43F08053E2
:10203400D361854BDB6903F08053BB60BB6801232C
:10204400FB75824B1B6803F48073002B18D17F4B04
:102054001B687E4A43F480731360FEF7DDFF38612A
:1020640008E0FEF7D9FF02463B69D31A642B01D975
:10207400032303E1754B1B6803F48073002BF0D03A
:102084007B68DB68012B06D16F4B1B6A6E4A43F0F9
:10209400010313622DE07B68DB68002B0CD16A4BD3
:1020A4001B6A694A23F001031362674B1B6A664A81
:1020B40023F0040313621CE07B68DB68052B0CD15E
:1020C400614B1B6A604A43F0040313625E4B1B6A54
:1020D4005D4A43F0010313620BE05B4B1B6A5A4AEF
:1020E40023F001031362584B1B6A574A23F004037D
:1020F40013627B68DB68002B15D0FEF78DFF386117
:102104000AE0FEF789FF02463B69D31A41F288329E
:10211400934201D90323B1E04B4B1B6A03F0020342
:10212400002BEED014E0FEF777FF38610AE0FEF7EB
:1021340073FF02463B69D31A41F28832934201D9B4
:1021440003239BE0404B1B6A03F00203002BEED1F8
:10215400FB7D012B05D13C4BDB693B4A23F08053CB
:10216400D3617B68DB69002B00F08780364B5B68AA
:1021740003F00C03082B61D07B68DB69022B46D18A
:10218400334B00221A60FEF747FF386108E0FEF780
:1021940043FF02463B69D31A022B01D903236DE0A6
:1021A400294B1B6803F00073002BF0D17B681B6A7A
:1021B400B3F5803F08D1244B5B6823F400327B687D
:1021C4009B68214913434B601F4B5B6823F47412D3
:1021D4007B68196A7B685B6A0B431B4913434B603A
:1021E4001B4B01221A60FEF717FF386108E0FEF767
:1021F40013FF02463B69D31A022B01D903233DE0A6
:10220400114B1B6803F00073002BF0D035E0104B2A
:1022140000221A60FEF700FF386108E0FEF7FCFEBA
:1022240002463B69D31A022B01D9032326E0064B4D
:102234001B6803F00073002BF0D11EE07B68DB69A0
:10224400012B07D1012319E0001002400070004067
:10225400600042420B4B5B68FB60FB6803F4803216
:102264007B681B6A9A4206D1FB6803F470127B6890
:102274005B6A9A4201D0012300E000231846183714
:10228400BD4680BD0010024080B584B000AF7860C8
:1022940039607B68002B01D10123D0E06A4B1B68B5
:1022A40003F007033A689A4210D9674B1B6823F07E
:1022B400070265493B6813430B60634B1B6803F0DB
:1022C40007033A689A4201D00123B8E07B681B688F
:1022D40003F00203002B20D07B681B6803F0040387
:1022E400002B05D0594B5B68584A43F4E0635360B4
:1022F4007B681B6803F00803002B05D0534B5B6815
:10230400524A43F460535360504B5B6823F0F0022D
:102314007B689B684D4913434B607B681B6803F0E3
:102324000103002B40D07B685B68012B07D1474B2E
:102334001B6803F40033002B15D101237FE07B6875
:102344005B68022B07D1414B1B6803F00073002B21
:1023540009D1012373E03D4B1B6803F00203002BFA
:1023640001D101236BE0394B5B6823F003027B68E6
:102374005B68364913434B60FEF74EFEF8600AE093
:10238400FEF74AFE0246FB68D31A41F288329342B2
:1023940001D9032353E02D4B5B6803F00C027B68E7
:1023A4005B689B009A42EBD1274B1B6803F0070341
:1023B4003A689A4210D2244B1B6823F00702224940
:1023C4003B6813430B60204B1B6803F007033A6818
:1023D4009A4201D0012332E07B681B6803F00403B6
:1023E400002B08D0194B5B6823F4E0627B68DB6840
:1023F400164913434B607B681B6803F00803002BEA
:1024040009D0124B5B6823F460527B681B69DB00C4
:102414000E4913434B6000F021F802460B4B5B68F6
:102424001B0903F00F030A49CB5C22FA03F3094AA0
:102434001360094B1B681846FEF7ACFD00231846D1
:102444001037BD4680BD00BF00200240001002408E
:10245400544A0008000000200400002080B487B023
:1024640000AF0023FB600023BB6000237B610023DB
:102474007B6000233B611E4B5B68FB60FB6803F0E1
:102484000C03042B02D0082B03D027E0194B3B612B
:1024940027E0FB689B0C03F00F03174AD35C7B60B7
:1024A400FB6803F48033002B10D0114B5B685B0C8A
:1024B40003F00103114AD35CBB607B680D4A03FB44
:1024C40002F2BB68B2FBF3F37B6104E07B680C4A65
:1024D40002FB03F37B617B693B6102E0094B3B61D7
:1024E40000BF3B6918461C37BD4680BC704700BF1F
:1024F400001002400024F4006C4A00087C4A0008E2
:1025040000093D0000127A0080B400AF024B1B6842
:102514001846BD4680BC70470000002080B500AF5F
:10252400FFF7F2FF0246054B5B681B0A03F0070343
:102534000349CB5C22FA03F3184680BD0010024025
:10254400644A000880B500AFFFF7DEFF0246054B82
:102554005B68DB0A03F007030349CB5C22FA03F34D
:10256400184680BD00100240644A000880B485B05B
:1025740000AF78600A4B1B680A4AA2FB03235B0A7C
:102584007A6802FB03F3FB6000BFFB685A1EFA6023
:10259400002BF9D100BF00BF1437BD4680BC704783
:1025A40000000020D34D621080B582B000AF786087
:1025B4007B68002B01D1012341E07B6893F83D3017
:1025C400DBB2002B06D17B68002283F83C207868BC
:1025D400FEF744FB7B68022283F83D207B681A687F
:1025E4007B6804331946104600F0CAFA7B6801225E
:1025F40083F846207B68012283F83E207B68012211
:1026040083F83F207B68012283F840207B68012205
:1026140083F841207B68012283F842207B680122F1
:1026240083F843207B68012283F844207B680122DD
:1026340083F845207B68012283F83D200023184657
:102644000837BD4680BD80B582B000AF78607B6836
:10265400002B01D1012341E07B6893F83D30DBB2CC
:10266400002B06D17B68002283F83C20786800F0B8
:1026740039F87B68022283F83D207B681A687B68FE
:1026840004331946104600F07BFA7B68012283F874
:1026940046207B68012283F83E207B68012283F870
:1026A4003F207B68012283F840207B68012283F865
:1026B40041207B68012283F842207B68012283F851
:1026C40043207B68012283F844207B68012283F83D
:1026D40045207B68012283F83D20002318460837F3
:1026E400BD4680BD80B483B000AF786000BF0C37B6
:1026F400BD4680BC7047000080B584B000AF7860F0
:1027040039603B68002B09D17B6893F83E30DBB21B
:10271400012B14BF01230023DBB222E03B68042B0E
:1027240009D17B6893F83F30DBB2012B14BF01233E
:102734000023DBB215E03B68082B09D17B6893F8D2
:102744004030DBB2012B14BF01230023DBB208E0CD
:102754007B6893F84130DBB2012B14BF01230023C3
:10276400DBB2002B01D0012372E03B68002B04D1C3
:102774007B68022283F83E2013E03B68042B04D1DB
:102784007B68022283F83F200BE03B68082B04D1CE
:102794007B68022283F8402003E07B68022283F8EE
:1027A40041207B681B6801223968184600F0B0FCA0
:1027B4007B681B68284A934204D07B681B68274ABD
:1027C400934201D1012300E00023002B07D07B6852
:1027D4001B685A6C7B681B6842F400425A647B682D
:1027E4001B681D4A934218D07B681B681B4A93429E
:1027F40013D07B681B68B3F1804F0ED07B681B68D5
:10280400174A934209D07B681B68164A934204D046
:102814007B681B68144A934211D17B681B689B68D0
:1028240003F00703FB60FB68062B10D07B681B6872
:102834001A687B681B6842F001021A6007E07B6833
:102844001B681A687B681B6842F001021A60002347
:1028540018461037BD4680BD002C014000340140AD
:102864000004004000080040000C004080B586B021
:1028740000AFF860B9607A600023FB75FB6893F8D9
:102884003C30012B01D10223AEE0FB68012283F826
:102894003C207B680C2B00F29F8001A252F823F0AD
:1028A400D9280008DD290008DD290008DD290008F1
:1028B40019290008DD290008DD290008DD290008A0
:1028C4005B290008DD290008DD290008DD2900084E
:1028D4009B290008FB681B68B968184600F0D6F904
:1028E400FB681B689A69FB681B6842F008029A61DE
:1028F400FB681B689A69FB681B6822F004029A61F2
:10290400FB681B689969BB681A69FB681B680A4302
:102914009A6164E0FB681B68B968184600F026FAFF
:10292400FB681B689A69FB681B6842F400629A6141
:10293400FB681B689A69FB681B6822F480629A61D1
:10294400FB681B689969BB681B691A02FB681B68F2
:102954000A439A6143E0FB681B68B968184600F0B3
:1029640079FAFB681B68DA69FB681B6842F00802A5
:10297400DA61FB681B68DA69FB681B6822F00402F1
:10298400DA61FB681B68D969BB681A69FB681B6854
:102994000A43DA6123E0FB681B68B968184600F053
:1029A400CDFAFB681B68DA69FB681B6842F40062B5
:1029B400DA61FB681B68DA69FB681B6822F48062D1
:1029C400DA61FB681B68D969BB681B691A02FB687A
:1029D4001B680A43DA6102E00123FB7500BFFB6850
:1029E400002283F83C20FB7D18461837BD4680BD85
:1029F40080B584B000AF786039600023FB737B68D6
:102A040093F83C30012B01D10223B4E07B6801220E
:102A140083F83C207B68022283F83D207B681B6896
:102A24009B68BB60BB6823F07703BB60BB6823F47F
:102A34007F43BB607B681B68BA689A603B681B680D
:102A4400B3F5005F3ED0B3F5005F00F28780B3F5C5
:102A5400805F00F08680B3F5805F7FD8702B1AD03A
:102A6400702B7BD8602B50D0602B77D8502B3CD068
:102A7400502B73D8402B58D0402B6FD8302B64D0B8
:102A8400302B6BD8202B60D0202B67D8002B5CD048
:102A9400102B5AD062E07B6818683B6899683B68E1
:102AA4005A683B68DB6800F014FB7B681B689B6812
:102AB400BB60BB6843F07703BB607B681B68BA6884
:102AC4009A604FE07B6818683B6899683B685A686D
:102AD4003B68DB6800F0FDFA7B681B689A687B68DA
:102AE4001B6842F480429A603CE07B6818683B684B
:102AF40059683B68DB681A4600F074FA7B681B6807
:102B04005021184600F0CBFA2CE07B6818683B682B
:102B140059683B68DB681A4600F092FA7B681B68C8
:102B24006021184600F0BBFA1CE07B6818683B681B
:102B340059683B68DB681A4600F054FA7B681B68E6
:102B44004021184600F0ABFA0CE07B681A683B6839
:102B54001B681946104600F0A2FA03E00123FB7338
:102B640000E000BF7B68012283F83D207B680022DF
:102B740083F83C20FB7B18461037BD4680BD00001F
:102B840080B485B000AF786039607B681B68FB60F7
:102B94007B68394A934213D07B68384A93420FD0FA
:102BA4007B68B3F1804F0BD07B68354A934207D0E2
:102BB4007B68344A934203D07B68334A934208D1FA
:102BC400FB6823F07003FB603B685B68FA6813439F
:102BD400FB607B68284A934213D07B68274A934260
:102BE4000FD07B68B3F1804F0BD07B68244A9342AB
:102BF40007D07B68234A934203D07B68224A9342DE
:102C040008D1FB6823F44073FB603B68DB68FA6817
:102C14001343FB60FB6823F080023B685B6913434A
:102C2400FB607B68FA681A603B689A687B68DA62C2
:102C34003B681A687B689A627B680F4A934203D0A8
:102C44007B680E4A934203D13B681A697B681A6316
:102C54007B6801225A617B681B6903F00103002B26
:102C640005D07B681B6923F001027B681A6100BFF1
:102C74001437BD4680BC7047002C0140003401402D
:102C84000004004000080040000C004080B487B0FD
:102C940000AF786039607B681B6A7B617B681B6A64
:102CA40023F001027B681A627B685B683B617B6886
:102CB4009B69FB60FB6823F07003FB60FB6823F0F7
:102CC4000303FB603B681B68FA681343FB607B6982
:102CD40023F002037B613B689B687A6913437B6141
:102CE4007B68204A934203D07B681F4A93420CD1ED
:102CF4007B6923F008037B613B68DB687A691343D3
:102D04007B617B6923F004037B617B68154A9342F2
:102D140003D07B68144A934211D13B6923F4807336
:102D24003B613B6923F400733B613B685B693A692F
:102D340013433B613B689B693A6913433B617B687E
:102D44003A695A607B68FA689A613B685A687B689A
:102D54005A637B687A691A6200BF1C37BD4680BC1F
:102D6400704700BF002C01400034014080B487B09C
:102D740000AF786039607B681B6A7B617B681B6A83
:102D840023F010027B681A627B685B683B617B6896
:102D94009B69FB60FB6823F4E043FB60FB6823F45E
:102DA4004073FB603B681B681B02FA681343FB60BB
:102DB4007B6923F020037B613B689B681B017A6974
:102DC40013437B617B68214A934203D07B68204A8A
:102DD40093420DD17B6923F080037B613B68DB6800
:102DE4001B017A6913437B617B6923F040037B6198
:102DF4007B68164A934203D07B68154A934213D1E9
:102E04003B6923F480633B613B6923F400633B61CA
:102E14003B685B699B003A6913433B613B689B6970
:102E24009B003A6913433B617B683A695A607B684B
:102E3400FA689A613B685A687B689A637B687A6926
:102E44001A6200BF1C37BD4680BC7047002C01408D
:102E54000034014080B487B000AF786039607B688B
:102E64001B6A7B617B681B6A23F480727B681A622D
:102E74007B685B683B617B68DB69FB60FB6823F014
:102E84007003FB60FB6823F00303FB603B681B6873
:102E9400FA681343FB607B6923F400737B613B682E
:102EA4009B681B027A6913437B617B68214A9342C6
:102EB40003D07B68204A93420DD17B6923F40063DD
:102EC4007B613B68DB681B027A6913437B617B6926
:102ED40023F480637B617B68164A934203D07B684A
:102EE400154A934213D13B6923F480533B613B69F8
:102EF40023F400533B613B685B691B013A6913434C
:102F04003B613B689B691B013A6913433B617B68E6
:102F14003A695A607B68FA68DA613B685A687B6888
:102F2400DA637B687A691A6200BF1C37BD4680BCCD
:102F3400704700BF002C01400034014080B487B0CA
:102F440000AF786039607B681B6A3B617B681B6AF1
:102F540023F480527B681A627B685B687B617B68C0
:102F6400DB69FB60FB6823F4E043FB60FB6823F44C
:102F74004073FB603B681B681B02FA681343FB60E9
:102F84003B6923F400533B613B689B681B033A692C
:102F940013433B617B68114A934203D07B68104A18
:102FA400934209D17B6923F480437B613B685B696D
:102FB4009B017A6913437B617B687A695A607B68F9
:102FC400FA68DA613B685A687B681A647B683A6914
:102FD4001A6200BF1C37BD4680BC7047002C0140FC
:102FE4000034014080B487B000AFF860B9607A6003
:102FF400FB681B6A7B61FB681B6A23F00102FB68A8
:103004001A62FB689B693B613B6923F0F0033B61F7
:103014007B681B013A6913433B617B6923F00A0314
:103024007B617A69BB6813437B61FB683A699A6187
:10303400FB687A691A6200BF1C37BD4680BC7047C2
:1030440080B487B000AFF860B9607A60FB681B6A2F
:103054007B61FB681B6A23F01002FB681A62FB6841
:103064009B693B613B6923F470433B617B681B03B1
:103074003A6913433B617B6923F0A0037B61BB681E
:103084001B017A6913437B61FB683A699A61FB68A7
:103094007A691A6200BF1C37BD4680BC704780B491
:1030A40085B000AF786039607B689B68FB60FB6823
:1030B40023F07003FB603A68FB68134343F0070393
:1030C400FB607B68FA689A6000BF1437BD4680BC19
:1030D400704780B487B000AFF860B9607A603B6035
:1030E400FB689B687B617B6923F47F437B613B685E
:1030F4001A027B681A43BB6813437A6913437B61E2
:10310400FB687A699A6000BF1C37BD4680BC704773
:1031140080B487B000AFF860B9607A60BB6803F030
:103124001F03012202FA03F37B61FB681A6A7B69BD
:10313400DB431A40FB681A62FB681A6ABB6803F037
:103144001F03796801FA03F31A43FB681A6200BF8C
:103154001C37BD4680BC704780B485B000AF786032
:1031640039607B6893F83C30012B01D1022350E095
:103174007B68012283F83C207B68022283F83D208F
:103184007B681B685B68FB607B681B689B68BB6033
:10319400FB6823F07003FB603B681B68FA68134309
:1031A400FB607B681B68FA685A607B681B681B4A73
:1031B400934218D07B681B68194A934213D07B68EA
:1031C4001B68B3F1804F0ED07B681B68154A93428D
:1031D40009D07B681B68144A934204D07B681B683F
:1031E400124A93420CD1BB6823F08003BB603B6856
:1031F4005B68BA681343BB607B681B68BA689A60F3
:103204007B68012283F83D207B68002283F83C2000
:10321400002318461437BD4680BC7047002C01407B
:10322400003401400004004000080040000C00404D
:1032340080B582B000AF78607B68002B01D1012398
:1032440042E07B6893F84130DBB2002B06D17B6807
:10325400002283F840207868FDF750FD7B68242223
:1032640083F841207B681B68DA687B681B6822F45A
:103274000052DA60786800F063FD7B681B681A69A5
:103284007B681B6822F490421A617B681B685A6948
:103294007B681B6822F02A025A617B681B68DA6823
:1032A4007B681B6842F40052DA607B6800225A642F
:1032B4007B68202283F841207B68202283F8422007
:1032C4007B6800225A63002318460837BD4680BD38
:1032D40080B58AB002AFF860B9603B601346FB80EA
:1032E40000237B61FB6893F84130DBB2202B75D15E
:1032F400BB68002B02D0FB88002B01D101236EE0B8
:10330400FB6800225A64FB68212283F84120FDF700
:1033140083FE7861FB68FA889A84FB68FA88DA8409
:10332400FB689B68B3F5805F08D1FB681B69002BC1
:1033340004D10023FB61BB68BB6103E0BB68FB6194
:103344000023BB612EE03B6800937B69002280214F
:10335400F86800F001FB0346002B05D0FB6820222F
:1033640083F8412003233AE0FB69002B0BD1BB69AE
:103374001B881A46FB681B68C2F308025A60BB69C3
:103384000233BB6107E0FB691A78FB681B685A606B
:10339400FB690133FB61FB68DB8C9BB2013B9AB296
:1033A400FB68DA84FB68DB8C9BB2002BCBD13B68D7
:1033B40000937B6900224021F86800F0CDFA0346AF
:1033C400002B05D0FB68202283F84120032306E06C
:1033D400FB68202283F84120002300E002231846E2
:1033E4002037BD4680BD000080B5BAB000AF78601C
:1033F4007B681B681B68C7F8E4307B681B68DB6864
:10340400C7F8E0307B681B685B69C7F8DC300023D1
:10341400C7F8D8300023C7F8D430D7F8E43003F025
:103424000F03C7F8D830D7F8D830002B0FD1D7F80E
:10343400E43003F02003002B09D0D7F8E03003F088
:103444002003002B03D0786800F0BCFB5BE2D7F8C4
:10345400D830002B00F0DE80D7F8DC3003F0010315
:10346400002B06D1D7F8E03003F49073002B00F062
:10347400D180D7F8E43003F00103002B0BD0D7F848
:10348400E03003F48073002B05D07B685B6C43F061
:1034940001027B685A64D7F8E43003F00403002B7C
:1034A4000BD0D7F8DC3003F00103002B05D07B6888
:1034B4005B6C43F002027B685A64D7F8E43003F093
:1034C4000203002B0BD0D7F8DC3003F00103002BF0
:1034D40005D07B685B6C43F004027B685A64D7F8C0
:1034E400E43003F00803002B11D0D7F8E03003F0E8
:1034F4002003002B05D1D7F8DC3003F00103002BA7
:1035040005D07B685B6C43F008027B685A647B6877
:103514005B6C002B00F0F281D7F8E43003F0200359
:10352400002B08D0D7F8E03003F02003002B02D0A2
:10353400786800F047FB7B681B685B6903F0400315
:10354400002B14BF01230023DBB2C7F8D4307B68FF
:103554005B6C03F00803002B03D1D7F8D430002BA5
:103564004FD0786800F051FA7B681B685B6903F000
:103574004003002B41D07B681B681433C7F89C3090
:10358400D7F89C3053E8003FC7F89830D7F8983004
:1035940023F04003C7F8D0307B681B681433D7F896
:1035A400D020C7F8A820C7F8A430D7F8A410D7F8BB
:1035B400A82041E80023C7F8A030D7F8A030002B9A
:1035C400D9D17B68DB6B002B13D07B68DB6B7E4A25
:1035D4005A637B68DB6B1846FDF7FCFE0346002B41
:1035E40016D07B68DB6B5B6B7A68D26B10469847AE
:1035F4000EE0786800F09CF90AE0786800F098F929
:1036040006E0786800F094F97B6800225A6475E15A
:1036140000BF73E17B681B6B012B40F04F81D7F82F
:10362400E43003F01003002B00F04881D7F8E030B9
:1036340003F01003002B00F041810023BB607B6882
:103644001B681B68BB607B681B685B68BB60BB68EE
:103654007B681B685B6903F04003002B00F0B680B5
:103664007B68DB6B1B685B68A7F8BE30B7F8BE30BD
:10367400002B00F045817B689B8DB7F8BE209A42F1
:1036840080F03E817B68B7F8BE20DA857B68DB6B0F
:103694009B69202B00F088807B681B680C33C7F87B
:1036A4008830D7F8883053E8003FC7F88430D7F81B
:1036B400843023F48073C7F8B8307B681B680C33FC
:1036C400D7F8B820C7F89420C7F89030D7F89010EE
:1036D400D7F8942041E80023C7F88C30D7F88C3011
:1036E400002BD9D17B681B6814337B677B6F53E84D
:1036F400003F3B673B6F23F00103C7F8B4307B689E
:103704001B681433D7F8B420C7F88020FB67F96F1F
:10371400D7F8802041E80023BB67BB6F002BE1D1C1
:103724007B681B6814333B663B6E53E8003FFB65C4
:10373400FB6D23F04003C7F8B0307B681B6814337B
:10374400D7F8B020FA66BB66B96EFA6E41E800237A
:103754007B667B6E002BE3D17B68202283F84220BA
:103764007B6800221A637B681B680C33FB64FB6C68
:1037740053E8003FBB64BB6C23F01003C7F8AC30C4
:103784007B681B680C33D7F8AC20BA657B65796D10
:10379400BA6D41E800233B653B6D002BE3D17B68A8
:1037A400DB6B1846FDF7DBFD7B6802225A637B68FE
:1037B4009A8D7B68DB8D9BB2D31A9BB219467868CD
:1037C40000F0BFF89CE000BFD33A00087B689A8DF4
:1037D4007B68DB8D9BB2D31AA7F8CE307B68DB8D78
:1037E4009BB2002B00F08E80B7F8CE30002B00F097
:1037F40089807B681B680C33BB63BB6B53E8003F59
:103804007B637B6B23F49073C7F8C8307B681B68B9
:103814000C33D7F8C8207A643B64396C7A6C41E87D
:103824000023FB63FB6B002BE3D17B681B68143321
:103834007B627B6A53E8003F3B623B6A23F00103EF
:10384400C7F8C4307B681B681433D7F8C4203A63C4
:10385400FB62F96A3A6B41E80023BB62BB6A002B46
:10386400E3D17B68202283F842207B6800221A631C
:103874007B681B680C333B613B6953E8003FFB608A
:10388400FB6823F01003C7F8C0307B681B680C3357
:10389400D7F8C020FA61BB61B969FA6941E800232D
:1038A4007B617B69002BE3D17B6802225A63B7F802
:1038B400CE301946786800F044F823E0D7F8E430B5
:1038C40003F08003002B09D0D7F8E03003F0800325
:1038D400002B03D0786800F00EF914E0D7F8E43038
:1038E40003F04003002B0ED0D7F8E03003F0400380
:1038F400002B08D0786800F04DF904E000BF02E026
:1039040000BF00E000BFE837BD4680BD80B483B08F
:1039140000AF786000BF0C37BD4680BC704780B4F0
:1039240083B000AF786000BF0C37BD4680BC7047E1
:1039340080B483B000AF786000BF0C37BD4680BC54
:10394400704780B483B000AF78600B467B8000BFC3
:103954000C37BD4680BC704780B586B000AFF860B8
:10396400B9603B601346FB713BE03B6AB3F1FF3F38
:1039740037D0FDF751FB02463B68D31A3A6A9A42A4
:1039840002D33B6A002B01D103233AE0FB681B6896
:10399400DB6803F00403002B23D0BB68802B20D00A
:1039A400BB68402B1DD0FB681B681B6803F0080331
:1039B400082B16D100237B61FB681B681B687B61A5
:1039C400FB681B685B687B617B69F86800F01DF825
:1039D400FB6808225A64FB68002283F84020012314
:1039E4000FE0FB681B681A68BB681340BA689A4208
:1039F4000CBF01230023DBB21A46FB799A42B4D0F0
:103A0400002318461837BD4680BD80B495B000AF7A
:103A140078607B681B680C337B637B6B53E8003FE7
:103A24003B633B6B23F49073FB647B681B680C3330
:103A3400FA6C3A64FB63F96B3A6C41E80023BB63AC
:103A4400BB6B002BE5D17B681B6814333B623B6A7C
:103A540053E8003FFB61FB6923F00103BB647B680F
:103A64001B681433BA6CFA62BB62B96AFA6A41E839
:103A740000237B627B6A002BE5D17B681B6B012BE7
:103A840019D17B681B680C33FB60FB6853E8003F6B
:103A9400BB60BB6823F010037B647B681B680C333A
:103AA4007A6CBA617B617969BA6941E800233B6148
:103AB4003B69002BE5D17B68202283F842207B6898
:103AC40000221A6300BF5437BD4680BC704780B5DE
:103AD40084B000AF78607B685B6AFB60FB6800229F
:103AE400DA85FB680022DA84F868FFF721FF00BF5B
:103AF4001037BD4680BD80B485B000AF78607B6868
:103B040093F84130DBB2212B3ED17B689B68B3F53F
:103B1400805F14D17B681B69002B10D17B681B6A02
:103B2400FB60FB681B881A467B681B68C2F30802AB
:103B34005A607B681B6A9A1C7B681A6208E07B687F
:103B44001B6A591C7A6811621A787B681B685A6070
:103B54007B68DB8C9BB2013B9BB27A681946D184AB
:103B6400002B0FD17B681B68DA687B681B6822F026
:103B74008002DA607B681B68DA687B681B6842F045
:103B84004002DA60002300E0022318461437BD46E1
:103B940080BC704780B582B000AF78607B681B68DA
:103BA400DA687B681B6822F04002DA607B682022B6
:103BB40083F841207868FFF7A9FE002318460837E8
:103BC400BD4680BD80B58CB000AF78607B6893F84B
:103BD4004230DBB2222B40F0AE807B689B68B3F5A9
:103BE400805F17D17B681B69002B13D10023FB6214
:103BF4007B689B6ABB627B681B685B689BB2C3F390
:103C040008039AB2BB6A1A807B689B6A9A1C7B6819
:103C14009A6226E07B689B6AFB620023BB627B6836
:103C24009B68B3F5805F07D07B689B68002B0AD143
:103C34007B681B69002B06D17B681B685B68DAB262
:103C4400FB6A1A7008E07B681B685B68DBB203F0F0
:103C54007F03DAB2FB6A1A707B689B6A5A1C7B6822
:103C64009A627B68DB8D9BB2013B9BB27A681946F2
:103C7400D185002B5DD17B681B68DA687B681B6883
:103C840022F02002DA607B681B68DA687B681B68B4
:103C940022F48072DA607B681B685A697B681B684F
:103CA40022F001025A617B68202283F842207B685B
:103CB40000225A637B681B6B012B35D17B68002281
:103CC4001A637B681B680C337B617B6953E8003F94
:103CD4003B613B6923F010037B627B681B680C33F8
:103CE4007A6A3A62FB61F9693A6A41E80023BB6186
:103CF400BB69002BE5D17B681B681B6803F01003CC
:103D0400102B0AD10023FB607B681B681B68FB60D7
:103D14007B681B685B68FB60FB687B689B8D19464E
:103D24007868FFF70EFE02E07868FFF7F8FD0023DD
:103D340002E0002300E0022318463037BD4680BD70
:103D440080B584B000AF78607B681B681B6923F47E
:103D540040517B68DA687B681B680A431A617B6898
:103D64009A687B681B691A437B685B691343BB6071
:103D74007B681B68DB6823F4B05323F00C037A6878
:103D84001268B9680B43D3607B681B685B6923F4D2
:103D940040717B689A697B681B680A435A617B6837
:103DA4001B682C4A934203D1FEF7CCFBF86002E077
:103DB400FEF7B4FBF860FA6813469B0013449A00BC
:103DC4001A447B685B689B00B2FBF3F3224AA2FBB4
:103DD40003235B091901FA6813469B0013449A00F4
:103DE4001A447B685B689B00B2FBF3F21A4BA3FB9B
:103DF40002035B09642000FB03F3D31A1B01323373
:103E0400154AA2FB03235B0903F0F0031944FA6883
:103E140013469B0013449A001A447B685B689B001A
:103E2400B2FBF3F20C4BA3FB02035B09642000FB1F
:103E340003F3D31A1B013233074AA2FB03235B09A2
:103E440003F00F027B681B680A449A6000BF1037B6
:103E5400BD4680BD003801401F85EB510EB46FF0A4
:103E6400004100B59CB01DAB0290069007910491EF
:103E74000848094953F8042B0591006802A90193E5
:103E840000F0C0F90022029B1A701CB05DF804EB2C
:103E940003B070470C0000200802FFFF00B59BB080
:103EA400009104916FF0004105910291054903913D
:103EB400694600F0A7F90022009B1A701BB05DF858
:103EC40004FB00BF0802FFFF13460A4601460248EE
:103ED4000068FFF7E3BF00BF0C0000200346024464
:103EE400934200D1704703F8011BF9E7014B1868AE
:103EF400704700BF0C00002070B500260C4D0D4C1F
:103F0400641BA410A64209D100F078FC00260A4DD7
:103F14000A4C641BA410A64205D170BD55F8043B9D
:103F240098470136EEE755F8043B98470136F2E727
:103F3400BC4A0008BC4A0008BC4A0008C04A000841
:103F4400704770470A44914200F1FF3300D1704733
:103F540010B511F8014B914203F8014FF9D110BD8E
:103F640038B50546002940D051F8043C0C1F002BFD
:103F7400B8BFE41800F0DEF81C4A136833B9636074
:103F840014602846BDE8384000F0DAB8A34208D9E6
:103F9400206821188B4201BF19685B6809182160E9
:103FA400EDE71A465B680BB1A342FAD911685018C1
:103FB400A0420BD120680144501883421160E0D123
:103FC40018685B68084410605360DAE702D90C2370
:103FD4002B60D6E7206821188B4201BF19685B6803
:103FE4000918216063605460CBE738BDE40A0020FF
:103FF40070B50F4E0C463168054611B900F0AAFBA6
:1040040030602146284600F0A5FB431C03D14FF045
:10401400FF34204670BDC41C24F00304A042F8D031
:10402400211A284600F096FB0130F2D1EFE700BFD9
:10403400E00A00202DE9F843CD1C25F003050835DE
:104044000C2D38BF0C25002D064601DBA94204D9EE
:104054000C2333600020BDE8F883DFF8D48000F03F
:1040640069F8D8F800301C4644BB29463046FFF7AF
:10407400BFFF431C044658D1D8F800402746002F00
:1040840043D1002C4BD023683946304604EB030956
:1040940000F060FB814542D1216830466D1A294603
:1040A400FFF7A6FF01303AD023682B442360D8F8E9
:1040B40000305A6862BBC8F800700FE02268521BD7
:1040C40020D40B2A17D96119A342256018BF59605F
:1040D400636808BFC8F8001062514B60304600F0B6
:1040E4002FF804F10B00231D20F00700C21A1CBF97
:1040F4001B1AA350AFE76268A3420CBFC8F80020A4
:104104005A60EBE723466468AEE73C467F68B6E74F
:104114001A465B68A342FBD100235360DEE70C23FD
:104124003046336000F00CF894E70560D6E700BF32
:10413400E40A00200148FFF703BF00BFDC0A0020A7
:104144000148FFF7FEBE00BFDC0A00202DE9F0475E
:104154001F468E688246BE420C4690460B682DD898
:10416400B1F90C2012F4906F26D06569096905EB4A
:104174004505A3EB010905EBD5757B1C4B446D107C
:104184009D4238BF1D46530527D52946FFF752FFE8
:10419400064660B34A462169FFF7D4FEA38923F497
:1041A400906343F08003A38126614E4426603E461B
:1041B4006561A5EB0905A560BE4200D93E463246BD
:1041C4004146206800F0ACFA0020A3689B1BA36062
:1041D400236833442360BDE8F0872A4600F0D8FA08
:1041E40006460028E0D150462169FFF7B9FE0C23AA
:1041F400CAF80030A3894FF0FF3043F04003A38195
:10420400E9E700002DE9F04F98468B8907461B0625
:104214000D4614469DB010D50B6973B94021FFF7C4
:1042240009FF2860286130B90C233B604FF0FF3050
:104234001DB0BDE8F08F40236B6100230993202358
:104244008DF8293030234FF00109CDF80C80DFF8C8
:1042540098818DF82A3023469A4613F8012B0AB127
:10426400252AF9D1BAEB040B0BD05B46224629462A
:104274003846FFF76BFF013000F0A780099A5A44D3
:1042840009929AF80030002B00F09F8000234FF031
:10429400FF32CDE905230AF1010A049307938DF84F
:1042A40053301A935446052214F8011B4E4800F06B
:1042B40061FA049AD8B9D00644BF20238DF853304C
:1042C400110744BF2B238DF853309AF800302A2B62
:1042D40015D0544600204FF00A0C079A214611F8D5
:1042E400013B303B092B4BD9B0B1079214E0A0EB52
:1042F400080309FA03F31343A2460493D2E7039B8A
:10430400191D1B680391002BBBBF5B4242F00202E4
:1043140007930793B8BF049223782E2B0AD16378AE
:104324002A2B32D1039B02341A1D1B68039243EAE1
:10433400E3730593DFF8B4A003225046217800F01C
:1043440019FA38B14022049BA0EB0A0082401343BF
:104354000134049314F8011B062225488DF8281013
:1043640000F008FA002836D0224B1BBB039B07330E
:1043740023F0070308330393099B334409936AE743
:104384000C4601200CFB0232A8E700234FF00A0C74
:10439400194601340593204610F8012B303A092AB6
:1043A40003D9002BC6D00591C4E7044601230CFBB6
:1043B4000121F0E703AB00932A4638460E4B04A9CB
:1043C400AFF30080421C0646D6D1AB895B063FF5AD
:1043D4002DAF09982CE703AB00932A463846064BC9
:1043E40004A900F07DF8EDE77E4A0008844A00083D
:1043F400884A000800000000514100082DE9F047F8
:10440400164698468A680B6907469342B8BF134616
:10441400336091F843200C46DDF820900AB1013353
:1044240033602368990642BF3368023333602568DA
:1044340015F0060506D104F1190AE36832689B1ADF
:10444400AB422BDC94F843302268003B18BF0123B5
:10445400920630D44146384604F14302C84701303D
:1044640023D02368226903F00603042B14BF00251C
:1044740033684FF0000608BFE56804F11A0408BF6A
:10448400ED1A54F8123C08BF25EAE5759342C4BFFF
:104494009B1AED18B5421AD1002008E001235246B8
:1044A40041463846C847013003D14FF0FF30BDE8DC
:1044B400F0870135C1E73020E11881F843005A1C28
:1044C40094F845102244023382F84310C2E70123D2
:1044D400224641463846C8470130E6D00136D9E77E
:1044E4002DE9FF470F7E9146782F80460C469A4669
:1044F4000C9E01F1430207D8622F0AD8002F00F066
:10450400D380582F00F0BA8004F1420684F8427038
:104514003AE0A7F16303152BF6D801A151F823F073
:104524007D450008914500080D4500080D4500082B
:104534000D4500080D450008914500080D4500088B
:104544000D4500080D4500080D4500089346000878
:10455400BB4500084D4600080D4500080D45000800
:10456400B54600080D450008BB4500080D45000888
:104574000D4500085546000833681A1D1B68326053
:1045840004F1420684F8423001239EE03368206837
:10459400191D3160060601D51D6803E04506FBD5EB
:1045A400B3F90050002D03DA2D236D4284F8433013
:1045B4000A23594811E021683368080653F8045B5C
:1045C40002D4490648BFADB26F2F336014BF0A232B
:1045D40008235148002184F843106668002EA8BFC0
:1045E4002168A660A4BF21F0040121600DB9002E4A
:1045F4004BD01646B5FBF3F103FB1157C75D06F824
:10460400017D2F46BB420D46F4D9082B0BD12368FC
:10461400DF0708D5236961689942DEBF302306F8B5
:10462400013C06F1FF36921B22614B46214640466F
:10463400CDF800A003AAFFF7E1FE01304AD14FF004
:10464400FF3004B0BDE8F087236843F02003236003
:104654007827324884F84570236831681F0651F87A
:10466400045B02D45F0648BFADB23160D90744BFD2
:1046740043F0200323601DB11023ABE72648E9E78C
:10468400236823F020032360F6E71646BDE733686A
:104694002568181D616930602E061B6801D51960F4
:1046A40002E06806FBD51980002316462361BCE7A7
:1046B400336800211A1D32601E686268304600F0BB
:1046C40059F808B1801B606063682361002384F893
:1046D4004330AAE73246494640462369D047013071
:1046E400ADD023689B0713D4E068039B9842B8BFFE
:1046F4001846A6E70123324649464046D0470130D2
:104704009DD00135E36803995B1AAB42F2DCEBE719
:10471400002504F11906F5E78F4A0008A04A0008AD
:10472400884210B501EB020402D98442234607D81B
:10473400431EA14208D011F8012B03F8012FF8E71A
:10474400014602448A4200D110BD13F8014D02F81B
:10475400014DF7E738B50023054D044608462B60A4
:10476400FCF7A0FB431C02D12B6803B1236038BDC6
:10477400D80A0020034610B5C9B202449342184631
:1047840001D1002003E0047801338C42F6D110BD3E
:104794002DE9F041804615460C4621B91146BDE885
:1047A400F041FFF747BC2AB9FFF7DAFB00242046A3
:1047B400BDE8F08100F01AF88542064602D8B5EB50
:1047C400500FF4D829464046FFF734FC074600282A
:1047D400ECD0B5422A46214628BF3246FFF7B2FB49
:1047E40021464046FFF7BCFB3C46E0E751F8043C59
:1047F400181F002BBCBF0B58C0187047F8B500BF7A
:10480400F8BC08BC9E467047F8B500BFF8BC08BCAD
:044814009E46704705
:10481800403E2530336425730000000025730A00EC
:1048280025303258200000000A0000006669726DC9
:104838007761726520696E666F2073697A652025D5
:10484800643A20637263202D203078253038580A66
:10485800000000006372632063616C3A20307825A1
:104868003038580A00000000667720696E666F20AD
:10487800656D7074790A00004E6565642075706412
:10488800617465206E6577206669726D77617265FF
:104898002073697A6520256420627974650A0000AE
:1048A8004E6F206E6565642075706461746520665E
:1048B80069726D776172650A000000004375727253
:1048C800656E74206669726D776172652073697AA6
:1048D8006520256420627974650A00004669726D56
:1048E800776172652073697A653A20256420627958
:1048F8007465732C206E756D207061676520657214
:104908006173653A2025640A000000007372635FD2
:1049180073746172745F616464723A203078253010
:1049280038582C206473745F73746172745F6164A7
:1049380064723A203078253038580A00636F7079ED
:104948002066726F6D2030782530385820746F20BB
:1049580030782530385820776974682025642062BB
:10496800797465730A000000424F4F544C4F41441C
:1049780045523A20496E697420646F6E650D0A00CD
:10498800424F4F544C4F414445523A2048575F5686
:1049980045523A2025642C2046575F5645523A2006
:1049A80025640A00426F6F746C6F616465722063DE
:1049B8007573746F6D207374617274210A0000003E
:1049C800757064617465206669726D7761726520BF
:1049D80073756363657373210A0000007570646101
:1049E8007465206669726D77617265206661696CAD
:1049F8002C207265747279206C65667420256400B9
:104A0800726573746172742E2E2E2E0A00000000D7
:104A18006A756D7020746F20617070202E2E2E20A4
:104A280025640A004166746572206D61696E2C20E8
:104A380073686F756C64206E657665722062652098
:104A4800726561636865642E0A000000000000005A
:104A58000000000001020304060708090000000026
:104A68000102030402030405060708090A0B0C0DDA
:104A78000E0F10100102232D302B2000686C4C0003
:104A88006566674546470030313233343536373846
:104A980039414243444546003031323334353637A4
:0C4AA8003839616263646566000000003C
:084AB40070B7FF7F0100000054
:044ABC0009020008E3
:044AC000E501000804
:104AC40000127A0010000000010000001000002015
:104AD40000000000A0090020080A0020700A00203D
:104AE40000000000000000000000000000000000C2
:104AF40000000000000000000000000000000000B2
:104B040000000000000000000000000000000000A1
:0C4B140000000000000000000000000095
:0400000508000F21BF
:00000001FF
